:020000040800F2
:1000000070060020650100088B0100088D010008C2
:1000100000000000000000000000000000000000E0
:100020000000000000000000000000008F01000838
:10003000000000000000000091010008930100088A
:100040009501000895010008950100089501000838
:100050009501000895010008950100089501000828
:1000600095010008FD0300089501000895010008AE
:10007000A1030008950100089501000895010008FA
:100080009501000800000000000000009501000834
:100090000000000095010008ED0600089501000829
:1000A0000000000095010008950100089501000876
:1000B0009501000800000000950100089501000866
:1000C00000F002F800F03EF80CA030C80838241800
:1000D0002D18A246671EAB4654465D46AC4201D180
:1000E00000F030F87E460F3E0FCCB6460126334274
:1000F00000D0FB1AA246AB4633431847140F00004A
:10010000340F0000103A02D378C878C1FAD85207E9
:1001100001D330C830C101D504680C6070470000BD
:100120000023002400250026103A01D378C1FBD813
:10013000520700D330C100D50B6070471FB51FBDFB
:1001400010B510BD00F0F8F81146FFF7F7FF00F00A
:1001500083FC00F010F903B4FFF7F2FF03BC00F0DA
:1001600017F900000F4880F308880F480168090E4E
:100170000E4A914205D10E480E4901600E480F49C2
:1001800001600F4880470F480047FEE7FEE7FEE7A3
:10019000FEE7FEE7FEE700000B480C490C4A0D4B5A
:1001A0007047000070060020040000001F000000DF
:1001B0001810024001000000000001400000000093
:1001C00079060008C10000087000002070060020B9
:1001D0007002002070020020002203098B422CD301
:1001E000030A8B4211D300239C464EE003460B4387
:1001F0003CD4002243088B4231D303098B421CD3E9
:10020000030A8B4201D394463FE0C3098B4201D3DA
:10021000CB01C01A524183098B4201D38B01C01A12
:10022000524143098B4201D34B01C01A5241030989
:100230008B4201D30B01C01A5241C3088B4201D338
:10024000CB00C01A524183088B4201D38B00C01AE5
:10025000524143088B4201D34B00C01A5241411A0C
:1002600000D201465241104670475DE0CA0F00D0EF
:100270004942031000D34042534000229C460309E8
:100280008B422DD3030A8B4212D3FC22890112BA6E
:10029000030A8B420CD3890192118B4208D3890146
:1002A00092118B4204D389013AD0921100E089095E
:1002B000C3098B4201D3CB01C01A524183098B423F
:1002C00001D38B01C01A524143098B4201D34B0128
:1002D000C01A524103098B4201D30B01C01A52418B
:1002E000C3088B4201D3CB00C01A524183088B4212
:1002F00001D38B00C01A5241D9D243088B4201D39B
:100300004B00C01A5241411A00D201466346524185
:100310005B10104601D34042002B00D54942704784
:1003200063465B1000D3404201B50020C046C04682
:1003300002BD704770477047754600F025F8AE461D
:10034000050069465346C008C000854618B020B570
:10035000FFF722FF60BC00274908B6460026C0C54B
:10036000C0C5C0C5C0C5C0C5C0C5C0C5C0C5403D6D
:1003700049008D46704710B50446C046C046204629
:10038000FFF7E9FE10BD0000004870471000002094
:1003900001491820ABBEFEE72600020070470000AE
:1003A0000F48006810210840002818D00C48006849
:1003B00008430B4908600846806810210843084933
:1003C000886008488068400840000649886002202C
:1003D000C860084680680121084302498860704768
:1003E000002401400000024000B50346802000F0D8
:1003F00069F8184600F066F800BD00001348006870
:100400000221084000281AD01048806840084000A7
:100410000E4988600220C8600846806801210843B0
:100420000A49886008464068022108430749486035
:1004300007488068042108430549886005E00348AF
:1004400040680821084301494860704700000240A5
:100450000024014000BF0A4880690121C903084007
:100460000028F8D106484068064908430449486016
:1004700000BF03488069C007C00F0028F9D070474B
:10048000005400407820FF0000BF0D488069C0077D
:10049000C00F0028F9D00A484068012189030843A9
:1004A0000749486000BF06488069202108400028AD
:1004B000F9D00348C06908430149C861704700008A
:1004C0000054004000BF08498969C907C90F0029C5
:1004D000F9D00549886200BF03498969402211406B
:1004E0000029F9D1704700000054004070B506465D
:1004F0000C46FFF7AFFF4020FFF7E4FF00231DE0AD
:100500003046203881004018C0180F490D5C002C7F
:1005100004D0E943C8B2FFF7D5FF02E02846FFF751
:10052000D1FF042B08D1002C03D0FF20FFF7CAFF16
:1005300002E00020FFF7C6FF581CC3B2052BDFDB2B
:10054000FFF7A2FF70BD0000AE0B000830B500241D
:1005500017E0FFF77FFF2020FFF746FF0020FFF79F
:1005600043FF4020FFF7AEFF002504E00020FFF727
:10057000A9FF681CC5B2802DF8DBFFF785FF601C62
:10058000C4B2082CE5DB30BD30B504460D46FFF79C
:1005900061FF0F2C06DD2111102211430846FFF7E1
:1005A00023FF02E01020FFF71FFF2007000FFFF7D7
:1005B0001BFFB02129430846FFF716FFFFF764FF32
:1005C00030BD000000B5FFF745FFAE20FFF70CFF80
:1005D00000200A4908700AE00949084A1278885C34
:1005E000FFF702FF05480078401C044908700348E3
:1005F00000781228F0D9FFF747FF00BD0000002067
:100600009C0B0008FEB505460E460124002700BFDE
:100610000A2D0EDB0A212846FFF7E8FDCFB2384647
:100620003030694608550A212846FFF7DFFD0546A8
:1006300004E028463030694608550025601CC4B2E5
:10064000002DE5D1601EC4B200BF6946085D314689
:10065000FFF74CFF601EC4B2002CF6D1FEBD30B5D2
:1006600004460D4604E020782946FFF73FFF641C4E
:1006700020780028F7D130BD1948006801210843CF
:100680001749086008464068164908401449486000
:100690000846006814490840114908600846006887
:1006A0000121890488430E490860084640683F21BB
:1006B000090488430A4948600846C06A00090001E5
:1006C000C8620846006BFF21D4318843044908639F
:1006D0000846406B4008400048630020886070472F
:1006E000001002400CB8FF08FFFFF6FE00B50748F7
:1006F0000069C007C00F002807D000F009F80348C0
:100700000069400840000149086100BD00480140FF
:1007100010480088002804D00E480088401E0D496B
:1007200008800D48008800280ED1FF20F5300A49C6
:1007300008800A4840690121484008494861084842
:100740000088401C0649088003480088401E024972
:1007500008807047040000200600002000040048C4
:1007600008000020002809DB00BF00BFC206D20E2F
:1007700001219140024A116000BF00BF7047000094
:1007800000E100E010B5002819DB1A4A03231B0220
:10079000D21883089B00D2588307DC0EFF23A340A6
:1007A0009A438B071B0E8407E40EA3401A43114B98
:1007B000032424021B198408A4001A5118E00E4ACD
:1007C00003071B0F083B9B089B00D2588307DC0ED6
:1007D000FF23A3409A438B071B0E8407E40EA3401C
:1007E0001A43054B0407240F083CA408A4001A511F
:1007F00010BD000000E100E01CED00E003490880AE
:1008000000BF024909880029FBD17047040000207D
:1008100010B58748806901218904084384498861AB
:100820008448854988620120C86208460068912191
:100830000843814908600846C068012108437E4991
:10084000C8601620FFF78EFF05211620FFF79AFFDC
:100850007748406901218904084375494861774810
:10086000006801210843754908607148406909031F
:1008700008436F494861724800680A21084370497B
:100880000860084680680F2108436D498860084663
:100890004068032108436A4948600846006A1121FC
:1008A0000843674908626248C06901214905084355
:1008B0005F49C861634800690904084361490861E8
:1008C00008460069132108435E490861084600692B
:1008D0000F21090208435B490861084600690121AC
:1008E0004904084357490861084600690121890500
:1008F000084354490861084640680321C9028843F7
:100900005049486008460068012108434D49086085
:100910004748406901214904084345494861092085
:10092000C0060068042108430921C906086008467A
:1009300000688008800008600846C06802210843FB
:100940000921C906C8603A484069012149040843A1
:10095000374948610920C00600680C210843092175
:10096000C906086008460068302108430921C90605
:1009700008602F4880690121490208432C49886199
:100980003148C0680121490308432F49C86008461F
:10099000806A062108432C49886208468068490518
:1009A00008432949886000BF27488068C00FC007F6
:1009B0000028F9D124488068012108432249886031
:1009C00008464069072108431F49486110204860D4
:1009D0000C20FFF7C7FE00210C20FFF7D3FE1448C0
:1009E000406901210843124948611748C068012144
:1009F00008431549C8601448403014490861144838
:100A000048610220C86008468068124908430F49BF
:100A1000886008468068012108430C4988600920E5
:100A2000FFF7A0FE00210920FFF7ACFE10BD00007B
:100A3000001002403F1F0000004801400004004831
:100A4000001400480054004000240140000002400F
:100A50000C0000208A050000FFF7DAFEC820FFF72F
:100A6000CDFEFFF7AFFDFFF771FD00210520FFF779
:100A70008BFD01213AA0FFF7F2FD3E48806801217D
:100A800008433C4988600846C06801210843394949
:100A9000C86000BF37480068C007C00F0028F9D001
:100AA00034488068042108433249886057E032485E
:100AB0000088002853D004210220FFF765FD0021A3
:100AC0002EA0FFF7CCFD2F4908880021FFF79AFDE3
:100AD00000212DA0FFF7C3FD05210220FFF754FDE3
:100AE00000212AA0FFF7BBFD264948880021FFF717
:100AF00089FD002124A0FFF7B2FD2248008821498A
:100B00004988884214DB06210220FFF73DFD0021C1
:100B100020A0FFF7A4FD1B4909881A4A5288881AA9
:100B20000021FFF76FFD002117A0FFF798FD13E0EC
:100B300006210220FFF728FD002116A0FFF78FFDF8
:100B4000104949880F4A1288881A0021FFF75AFD78
:100B500000210DA0FFF783FD002007490880A6E7CC
:100B600020544553542058475A5031303153423164
:100B700020000000002401400800002041444331CF
:100B8000200000000C0000202020200041444332BF
:100B90002000000064503D2000000000A83FD3006A
:100BA00040A1C8DA12817FA4A6D5808D14AF0000C1
:100BB00000000000002F00000007000700147F1451
:100BC0007F14242A7F2A12C4C8102646364955228B
:100BD000500005030000001C2241000041221C00BF
:100BE00014083E081408083E0808000050300010A1
:100BF00010101010006060000020100804023E5128
:100C000049453E00427F40004261514946214145ED
:100C10004B311814127F1027454545393C4A494944
:100C20003001710905033649494936064949291EEB
:100C30000036360000005636000008142241001429
:100C400014141414004122140802015109063249F7
:100C500059513E7E1111117E7F494949363E41412D
:100C600041227F4141221C7F494949417F090909AD
:100C7000013E4149497A7F0808087F00417F4100D1
:100C80002040413F017F081422417F404040407F87
:100C9000020C027F7F0408107F3E4141413E7F09E4
:100CA0000909063E4151215E7F09192946464949F5
:100CB000493101017F01013F4040403F1F2040205A
:100CC0001F3F4038403F631408146307087008074B
:100CD0006151494543007F414100552A552A55003D
:100CE00041417F00040201020440404040400001B5
:100CF00002040020545454787F4844443838444413
:100D00004420384444487F3854545418087E09011C
:100D1000020C5252523E7F0804047800447D400089
:100D20002040443D007F1028440000417F40007C6B
:100D3000041804787C0804047838444444387C144B
:100D4000141408081414187C7C080404084854542B
:100D50005420043F4440203C4040207C1C20402044
:100D60001C3C4030403C44281028440C5050503C1F
:100D70004464544C44000836410000007F000000E9
:100D800041360800040204080400000000000000CE
:100D90000000000000000000000000000000000053
:100DA0000000000000000000000000000000000043
:100DB0000000000000000000000000000000000033
:100DC0000000000000000000000000000000000023
:100DD0000000000000000000000000000000000013
:100DE0000000000000000000000000000000000003
:100DF00000000000000000000000000000000000F3
:100E000000000000000000000000000000000000E2
:100E100000000000000000000000000000000000D2
:100E200000000000000000000000000000000000C2
:100E300000000000000000000000000000000000B2
:100E4000000000000000000000000000000036006C
:100E50000000000000000000000000000000000092
:100E60003E49494922000000000000000000000047
:100E700000000000000000000044457C45440000E4
:100E8000000000000000000000417F410000447DA0
:100E90004000000000000000000000000000000012
:100EA0000000000000000000000000000000000042
:100EB000385444280000000000000000000000003A
:100EC0000000000000000000004A487A40407E1107
:100ED00011117E7F494949317F494949367F0101D6
:100EE0000103603E21217F7F4949494163147F14FA
:100EF0006322494949367F1008047F7F1009047F27
:100F00007F081422417C0201017F7F020C027F7F57
:100F10000808087F3E4141413E7F0101017F7F0972
:100F20000909063E4141412201017F01010748486C
:100F3000483F1C227F221C63140814633F20203F7B
:100F400060070808087F7F407F407F3F203F207F69
:100F5000017F4848307F4848307F7F4848483022EA
:100F60004949493E7F083E413E462919097F2054A0
:100F700054547878545454207C545454287C040499
:100F80000400603824386038545454186C107C10B5
:100F90006C28445454283C4040207C3C4042207CF7
:100FA0007C10102844601008047C7C0810087C7CAD
:100FB0001010107C38444444387C0404047C7C14B5
:100FC000141408384444442004047C04040C505095
:100FD000503C18247C241844281028443C20203CF1
:100FE000600C1010107C7C407C407C3C203C207CC1
:100FF000047C4848307C4830007C7C484848302895
:10100000445454387C10384438582424247C00003C
:10101000301000080000002010000000040100084B
:1010200040100008100000206006000020010008A9
:1010300000000000000000000000000000000000B0
:040000050800016589
:00000001FF
